:100000000C9434000C9451000C9451000C94510049
:100010000C9451000C9451000C9451000C9451001C
:100020000C9451000C9451000C9451000C9451000C
:100030000C9451000C9451000C9451000C945100FC
:100040000C9451000C9451000C9451000C945100EC
:100050000C9451000C9451000C9451000C945100DC
:100060000C9451000C94510011241FBECFEFD8E026
:10007000DEBFCDBF11E0A0E0B1E0E2E2F4E002C0FB
:1000800005900D92A233B107D9F722E0A2E3B1E0C7
:1000900001C01D92A33BB207E1F70E942E010C9410
:1000A0000F020C940000CF93DF9370E09B01220FAE
:1000B000331FFC01E20FF31F118210822898D9012F
:1000C000AE5EBE4F0D90BC91A02DEB01CE5FDE4F1A
:1000D00081E090E0BC01088002C0660F771F0A949F
:1000E000E2F740E050E02C9130E026233723232B29
:1000F00019F05183408306C04F5F5F4F411580E187
:10010000580789F7DF91CF910895CF93DF9300D0FF
:10011000CDB7DEB79A83898389819A81892B21F0B3
:1001200089819A810197F6CF0F900F90DF91CF913F
:100130000895289A82E390E00C9485006F927F9254
:100140008F929F92AF92BF92CF92DF92EF92FF92E7
:100150000F931F93CF93DF933C010E94990088E88F
:1001600093E10E948500E2E9F2E01192119282E0AF
:10017000E23BF807D1F79AE0892E912C02E311E0D7
:10018000C62DD72D82E9A82E82E0B82EF12CE12CC5
:10019000C12CD12C6F2DC3010E9453000E949900E5
:1001A00084EF91E00E94850088819981F801EC0D2F
:1001B000FD1D91838083E2E0CE0ED11CF4E1CF16C9
:1001C000D10441F720E030E080E090E0F801E20F58
:1001D000F31F40815181840F951F2E5F3F4F2431C3
:1001E0003105A1F7F501819391935F01B4010E945C
:1001F000FB01AB01465F5F4F80E090E0F801E80F44
:10020000F91F208131812417350728F4265F3F4FDD
:100210006217730710F0EE24E3940296843191057F
:1002200069F7F3940C5E1F4F2296F0E1FF12B0CFF6
:10023000E110A4CF0E94990084EF91E0DF91CF916B
:100240001F910F91FF90EF90DF90CF90BF90AF90F4
:100250009F908F907F906F900C948500CF93DF9349
:10026000CDB7DEB7A2970FB6F894DEBF0FBECDBFF5
:10027000F89481E084B98FEF85B991EC97B988B98A
:100280001AB88BB97894F894CE0101960E949E001A
:1002900082EB92E0A2E8B2E0E2E9F2E021E04191F3
:1002A0005191452B09F42C9311968E179F07B9F79E
:1002B0003AE0432E512C66246394712CC12CD12C2E
:1002C00082E7882E82E0982E92E3E92E91E0F92EC3
:1002D0008E010F5F1F4F22E9A22E22E0B22E82E88C
:1002E00092E09AA389A3312CE9A1FAA18191FAA302
:1002F000E9A3811168C0632DCE0101960E945300CD
:100300000E949900F50120813181C901B2010E944A
:10031000FB01F801808191818617970710F47183A2
:100320006083F80180819181F701EC0DFD1D9183BF
:10033000808380E090E040E050E0F701E80FF91F93
:1003400060817181460F571F029684319105A9F78C
:10035000205B3F4F81E04217530708F480E0F4012F
:100360008083E6B1E695E170329902C020E001C0D9
:1003700022E0E22B339902C090E001C094E0E92B27
:10038000349902C080E001C088E0E82B0E2E000CFA
:10039000FF0BEE58FD4F9081E0910001F0910101BB
:1003A0008091B202930102C0220F331F8A95E2F7B7
:1003B000992321F0C9019081892B04C0C90180953E
:1003C00090818923808333943FEF831A930A84E1D9
:1003D000E80EF11C0E5F1F4F92E0A90EB11CE0E188
:1003E0003E1282CFF2E0CF0ED11C24E1C216D1041E
:1003F00009F066CF63CFAA1BBB1B51E107C0AA1F40
:10040000BB1FA617B70710F0A61BB70B881F991FB5
:100410005A95A9F780959095BC01CD010895F8945F
:02042000FFCF0C
:100422002800010203040506070500010203040572
:1004320006072300230023002300230023002300B8
:100442002600290029002900290029002900290065
:0204520029007F
:00000001FF
